:020000040800F2
:100000000000082405100008210F0008230F000835
:10001000250F0008270F0008290F00080000000026
:100020000000000000000000000000002B0F00088E
:100030002D0F0008000000002F0F0008310F0008EE
:1000400055100008551000085510000855100008FC
:1000500055100008551000085510000855100008EC
:1000600055100008551000085510000855100008DC
:1000700055100008551000085510000855100008CC
:1000800055100008551000085510000855100008BC
:1000900055100008551000085510000855100008AC
:1000A000551000085510000855100008551000089C
:1000B000551000085510000855100008551000088C
:1000C000551000085510000855100008551000087C
:1000D00055100008390F0008551000085510000889
:1000E00055100008551000080000000055100008C9
:1000F000551000085510000855100008551000084C
:10010000551000085510000855100008551000083B
:10011000551000085510000855100008551000082B
:10012000551000085510000855100008551000081B
:10013000551000085510000855100008551000080B
:1001400000000000000000000000000000000000AF
:1001500055100008551000085510000855100008EB
:1001600055100008551000085510000855100008DB
:100170005510000855100008551000080000000038
:1001800055100008551000085510000855100008BB
:1001900055100008551000085510000855100008AB
:1001A000551000085510000855100008551000089B
:1001B000551000085510000855100008551000088B
:1001C000551000085510000855100008551000087B
:1001D000551000085510000855100008551000086B
:1001E000551000085510000855100008551000085B
:1001F000551000085510000855100008551000084B
:10020000551000085510000855100008551000083A
:10021000551000085510000855100008551000082A
:100220005510000855100008551000080000000087
:100230005510000855100008000000005510000877
:1002400055100008551000085510000855100008FA
:1002500055100008551000085510000855100008EA
:1002600055100008551000085510000855100008DA
:100270005510000855100008551000080000000037
:100280005510000855100008551000080000000027
:080290000000000055100008F9
:1002980010B5054C237833B9044B13B10448AFF3B8
:1002A80000800123237010BD4404002400000000D6
:1002B8003046000808B5034B1BB103490348AFF3A8
:1002C800008008BD000000004804002430460008F3
:1002D80080F0004002E000BF81F0004142001FBFF3
:1002E8005FEA410392EA030F7FEA226C7FEA236CFC
:1002F8006AD04FEA1262D2EB1363C1BFD2184140F1
:1003080048404140B8BF5B42192B88BF704710F086
:10031800004F40F4000020F07F4018BF404211F029
:10032800004F41F4000121F07F4118BF494292EA91
:10033800030F3FD0A2F1010241FA03FC10EB0C00BD
:10034800C3F1200301FA03F100F0004302D549424A
:1003580060EB4000B0F5000F13D3B0F1807F06D3F7
:1003680040084FEA310102F10102FE2A51D2B1F1EF
:10037800004F40EBC25008BF20F0010040EA0300E4
:100388007047490040EB0000013A28BFB0F5000F64
:10039800EDD2B0FA80FCACF1080CB2EB0C0200FA1A
:1003A8000CF0AABF00EBC25052421843BCBFD04069
:1003B8001843704792F0000F81F4000106BF80F4E3
:1003C80000000132013BB5E74FEA41037FEA226CA6
:1003D80018BF7FEA236C21D092EA030F04D092F071
:1003E800000F08BF0846704790EA010F1CBF0020A5
:1003F800704712F07F4F04D1400028BF40F0004002
:10040800704712F100723CBF00F50000704700F021
:10041800004343F0FE4040F4000070477FEA226248
:1004280016BF08467FEA23630146420206BF5FEA19
:10043800412390EA010F40F4800070474FF0000319
:1004480004E000BF10F0004348BF40425FEA000CE0
:1004580008BF704743F0964301464FF000001CE088
:1004680050EA010208BF70474FF000030AE000BFDE
:1004780050EA010208BF704711F0004302D540421C
:1004880061EB41015FEA010C02BF8446014600208E
:1004980043F0B64308BFA3F18053A3F50003BCFAA9
:1004A8008CF2083AA3EBC25310DB01FA02FC634456
:1004B80000FA02FCC2F12002BCF1004F20FA02F25D
:1004C80043EB020008BF20F00100704702F1200250
:1004D80001FA02FCC2F1200250EA4C0021FA02F2B1
:1004E80043EB020008BF20EADC7070474FF0FF0CB6
:1004F8001CEAD0521EBF1CEAD15392EA0C0F93EAB1
:100508000C0F6FD01A4480EA010C400218BF5FEA52
:1005180041211ED04FF0006343EA501043EA5111C5
:10052800A0FB01310CF00040B1F5000F3EBF4900BF
:1005380041EAD3715B0040EA010062F17F02FD2AC3
:100548001DD8B3F1004F40EBC25008BF20F00100A6
:10055800704790F0000F0CF0004C08BF49024CEABD
:10056800502040EA51207F3AC2BFD2F1FF0340EA4F
:10057800C250704740F400004FF00003013A5DDCC0
:1005880012F1190FDCBF00F000407047C2F1000201
:10059800410021FA02F1C2F1200200FA02FC5FEAEE
:1005A800310040F1000053EA4C0308BF20EADC7038
:1005B800704792F0000F00F0004C02BF400010F4AA
:1005C800000F013AF9D040EA0C0093F0000F01F057
:1005D800004C02BF490011F4000F013BF9D041EA79
:1005E8000C018FE70CEAD15392EA0C0F18BF93EA7B
:1005F8000C0F0AD030F0004C18BF31F0004CD8D1A5
:1006080080EA010000F00040704790F0000F17BF2B
:1006180090F0004F084691F0000F91F0004F14D071
:1006280092EA0C0F01D142020FD193EA0C0F03D1C9
:100638004B0218BF084608D180EA010000F00040CC
:1006480040F0FE4040F40000704740F0FE4040F4A7
:10065800400070474FF0FF0C1CEAD0521EBF1CEA46
:10066800D15392EA0C0F93EA0C0F69D0A2EB030264
:1006780080EA010C49024FEA402037D04FF08053FE
:1006880043EA111143EA10130CF000408B4238BFC3
:100698005B0042F17D024FF4000C8B4224BF5B1AD1
:1006A80040EA0C00B3EB510F24BFA3EB510340EA1F
:1006B8005C00B3EB910F24BFA3EB910340EA9C00CD
:1006C800B3EBD10F24BFA3EBD10340EADC001B013D
:1006D80018BF5FEA1C1CE0D1FD2A3FF650AF8B42E1
:1006E80040EBC25008BF20F0010070470CF0004CEE
:1006F8004CEA50207F32C2BFD2F1FF0340EAC25019
:10070800704740F400004FF00003013A37E792F0D9
:10071800000F00F0004C02BF400010F4000F013A37
:10072800F9D040EA0C0093F0000F01F0004C02BF32
:10073800490011F4000F013BF9D041EA0C0195E79B
:100748000CEAD15392EA0C0F08D142027FF47DAF34
:1007580093EA0C0F7FF470AF084676E793EA0C0F24
:1007680004D14B023FF44CAF08466EE730F0004C22
:1007780018BF31F0004CCAD130F000427FF45CAFB2
:1007880031F000437FF43CAF5FE700BF42000ED278
:10079800B2F1FE4F0BD34FF09E03B3EB126209D4B4
:1007A8004FEA002343F0004323FA02F070474FF06A
:1007B8000000704712F1610F01D1420202D14FF0DF
:1007C800FF3070474FF00000704700BF53B94AB977
:1007D800002908BF00281CBF4FF0FF314FF0FF3041
:1007E80000F074B9ADF1080C6DE904CE00F006F81C
:1007F800DDF804E0DDE9022304B070472DE9F04795
:10080800089E0D4604468846002B4DD18A429446E0
:1008180068D9B2FA82F252B101FA02F3C2F12001A8
:1008280020FA01F10CFA02FC41EA030894404FEA6D
:100838001C45210CB8FBF5FE1FFA8CF705FB1E833F
:1008480041EA03430EFB07F199420BD91CEB030362
:100858000EF1FF3080F01E81994240F21B81AEF10B
:10086800020E63445B1AA4B2B3FBF5F005FB103328
:1008780044EA034400FB07F7A7420AD91CEB040427
:1008880000F1FF3380F00881A74240F205816444FB
:100898000238E41B40EA0E4000211EB1D440002378
:1008A800C6E90043BDE8F0878B4208D9002E00F066
:1008B800EE800021C6E900050846BDE8F087B3FAD6
:1008C80083F100294AD1AB4202D3824200F2F98077
:1008D800841A65EB030301209846002EE2D0C6E98E
:1008E8000048DFE702B9FFDEB2FA82F2002A40F0E0
:1008F8009180A1EB0C054FEA1C471FFA8CFE0121E1
:10090800B5FBF7F307FB1350250C45EA00450EFB32
:1009180003F0A84208D91CEB050503F1FF3802D201
:10092800A84200F2CB8043462D1AA4B2B5FBF7F0DB
:1009380007FB105544EA05440EFB00FEA64508D9FE
:100948001CEB040400F1FF3502D2A64500F2BB807F
:100958002846A4EB0E0440EA03409EE7C1F12007B5
:100968008B4022FA07FC4CEA030C20FA07F405FA3C
:1009780001F31C43FD404FEA1C4900FA01F3B5FBA3
:10098800F9F8200C1FFA8CFE09FB185540EA0545BA
:1009980008FB0EF0A84202FA01F20BD91CEB050580
:1009A80008F1FF3A80F08880A84240F28580A8F1DB
:1009B800020865442D1AA4B2B5FBF9F009FB1055DD
:1009C80044EA054500FB0EFEAE4508D91CEB0505BB
:1009D80000F1FF346CD2AE456AD90238654440EA6A
:1009E8000840A0FB0294A5EB0E05A542C846A64602
:1009F80056D353D05EB1B3EB080265EB0E0505FA8A
:100A080007F722FA01F3CD401F43C6E9007500211C
:100A1800BDE8F087C2F1200320FA03F10CFA02FCCA
:100A280025FA03F395400D434FEA1C471FFA8CFE45
:100A3800B3FBF7F107FB11302B0C43EA004301FB32
:100A48000EF0984204FA02F408D91CEB030301F1F2
:100A5800FF382FD298422DD9023963441B1AADB200
:100A6800B3FBF7F007FB103345EA034500FB0EF331
:100A7800AB4208D91CEB050500F1FF3816D2AB4292
:100A880014D902386544ED1A40EA014138E7314685
:100A9800304607E78646E5E61846FAE64B45A9D20A
:100AA800B9EB020864EB0C0E0138A3E74046EAE70D
:100AB800204694E74146D1E7D0467BE7023B6544B0
:100AC80032E7084609E76444023842E7704700BF46
:100AD800F0B58BB000240594069407940894099403
:100AE8002D4BD3F8E02042F00402C3F8E020D3F8FD
:100AF800E02002F004020192019AD3F8E02042F0CB
:100B08008002C3F8E020D3F8E02002F080020292CD
:100B1800029AD3F8E02042F00102C3F8E020D3F8AB
:100B2800E02002F001020392039AD3F8E02042F099
:100B38000202C3F8E020D3F8E03003F00203049384
:100B4800049B164F22460321384600F060FF4FF4FD
:100B58000053059306940125079505A9104800F050
:100B68003BFE059506940226079605A90D4800F058
:100B780033FE0C2305930694079505A90A4800F04F
:100B88002BFE0323059306950796089605A9384674
:100B980000F022FE0BB0F0BD0044025800040258D9
:100BA8000008025800000258001C025808B5012825
:100BB80019D0344B1B783BB30821334800F020FF91
:100BC80020B10421304800F01BFF80B90A2000F052
:100BD800A7FA2C4B00221A7008212B4800F010FFAE
:100BE800D0B9012017E0274B01221A70E1E74FF432
:100BF8000051264800F004FF0028E7D001212448CE
:100C080000F0FEFE0128E1D008211F4800F0F8FEA0
:100C1800012814D0002008BD04211B4800F0F0FE74
:100C280038B34FF40051194800F0EAFE18B3012117
:100C3800174800F0E5FE01281FD00020EBE704214B
:100C4800114800F0DDFE012801D00020E3E74FF451
:100C580000510E4800F0D4FE012801D00020DAE748
:100C680001210B4800F0CCFE48B9064B01221A704E
:100C7800D1E70220CFE70320CDE70420CBE700200F
:100C8800C9E700BF00000024001C025800080258F1
:100C98000000025872B6FEE708B51548154B036008
:100CA8004FF4E133436000238360C36003610C2287
:100CB80042618361C36103624362836203F009FB9B
:100CC80070B900210A4803F07FFB58B90021084891
:100CD80003F09FFB40B9064803F057FB30B908BD45
:100CE800FFF7D8FFFFF7D6FFFFF7D4FFFFF7D2FFD4
:100CF800600400240010014000B59DB04C22002182
:100D080009A803F0CFFB2022002101A803F0CAFBA9
:100D1800022000F083FE00230093254BDA6A22F0BC
:100D28000102DA62DB6A03F001030093214B9A693E
:100D380042F440429A619B6903F440430093009B4C
:100D48001C4B9B6913F4005FFAD0012309934FF4FD
:100D580080330A9302231293139305221492A0223C
:100D680015921693179318930823199300231A932F
:100D78001B9309A800F07CFEB0B93F23019303231D
:100D880002930023039308230493402305930693B7
:100D98004FF4806207920893022101A801F0AEFA8D
:100DA80020B91DB05DF804FBFFF774FFFFF772FF71
:100DB800000400580048025838B500F071F9FFF7F0
:100DC8009BFFFFF785FEFFF767FF012425460EE02E
:100DD800254684F0010445B3012202211B4800F096
:100DE80016FE44B301221146184800F010FE0020F8
:100DF800FFF7DCFE28B3431E032BECD801A252F800
:100E080023F000BF290E0008230E00081D0E00085D
:100E1800D90D000885F00105DDE784F00104DAE763
:100E280085F0010584F00104D5E700220221074876
:100E380000F0EDFDD5E700220121044800F0E7FDB0
:100E4800D5E70A2000F06CF9D1E700BF000402588A
:100E580082B0074BD3F8F42042F00202C3F8F42022
:100E6800D3F8F43003F002030193019B02B07047FA
:100E78000044025810B5B6B00446002131913291B1
:100E8800339134913591BC2202A803F00BFB226800
:100E98001E4B9A4201D036B010BD0123029302A81E
:100EA80001F0C8FC78BB1A4BD3F8F02042F01002CE
:100EB800C3F8F020D3F8F02002F010020092009A54
:100EC800D3F8E02042F00102C3F8E020D3F8E03084
:100ED80003F001030193019B4FF4C0633193022394
:100EE80032930024339434930723359331A9094866
:100EF80000F072FC22460321252000F03DF9252050
:100F080000F070F9C7E7FFF7C5FECCE70010014015
:100F18000044025800000258FEE7FEE7FEE7FEE73D
:100F2800FEE770477047704708B500F0E7F808BD5E
:100F380008B5024802F0F2FB08BD00BF60040024B7
:100F4800244B1B6803F00F03062B06D8214A1368AD
:100F580023F00F0343F0070313601F4B1A6842F096
:100F680001021A6000221A6119681C4A0A401A60B4
:100F7800184B1B6813F0080F06D0164A136823F0A5
:100F88000F0343F007031360134B00229A61DA61E1
:100F98001A62134999621349D962134919635A634A
:100FA8009963DA6319645A64196821F48021196015
:100FB8001A660E4B1A680E4B1340B3F1005F03D24A
:100FC8000C4B0122C3F808210B4B43F2D2021A60E2
:100FD800704700BF00200052004402587FEDF6EA37
:100FE800000202020000FF01800201010010005C03
:100FF8000000FFFF0080005100400052DFF834D0AD
:10100800FFF79EFF0C480D490D4A002302E0D45813
:10101800C4500433C4188C42F9D30A4A0A4C00233A
:1010280001E013600432A242FBD303F017FAFFF782
:10103800C3FE704700000824000000244404002474
:101048009846000844040024F8040024FEE7000041
:10105800104B1B780BB90120704710B504464FF4AC
:101068007A70B0FBF3F30C4A1068B0FBF3F000F0B1
:10107800C7F868B90F2C01D901200AE000222146DF
:101088004FF0FF3000F078F8044B1C60002000E0BF
:10109800012010BD0C0000240400002410000024CE
:1010A80010B5032000F056F801F01CF80F498B69C1
:1010B800C3F303230E4AD35C03F01F03D8408B69A4
:1010C80003F00F03D35C03F01F0320FA03F3094A6C
:1010D8001360094B18600F20FFF7BAFF10B1012405
:1010E800204610BD0446FFF7B3FEF9E70044025856
:1010F800484600080800002404000024034B1B781D
:10110800034A11680B441360704700BF0C000024A9
:10111800F0040024014B1868704700BFF004002455
:1011280038B50446FFF7F6FF0546B4F1FF3F02D095
:10113800044B1B781C44FFF7EDFF401BA042FAD379
:1011480038BD00BF0C000024014B1868000C704724
:101158000010005C0649CB6823F4E0631B041B0CF9
:10116800000200F4E0600343024A1A43CA60704771
:1011780000ED00E00000FA0500B5174BDB68C3F38B
:101188000223C3F1070CBCF1040F28BF4FF0040C75
:1011980003F1040EBEF1060F14D9033B4FF0FF3ED6
:1011A8000EFA0CFC21EA0C0199400EFA03F322EA2C
:1011B80003031943002807DB0901C9B2074B195477
:1011C8005DF804FB0023E9E700F00F000901C9B24C
:1011D800034B1954F4E700BF00ED00E000E400E021
:1011E80014ED00E0002807DB00F01F02400901238E
:1011F8009340024A42F82030704700BF00E100E007
:101208000138B0F1807F0BD24FF0E0235861054AD6
:10121800F02182F823100020986107221A61704794
:101228000120704700ED00E070B50446FFF772FF3B
:10123800002C00F09181054694F83530DBB2022B82
:1012480006D080236365002384F83430012070BD04
:1012580023688C498C4A934218BF8B4230D018328D
:1012680093422DD0183293422AD01832934227D075
:101278001832934224D01832934221D01832934224
:101288001ED002F5567293421AD01832934217D0E4
:101298001832934214D01832934211D01832934224
:1012A8000ED0183293420BD01832934208D018321D
:1012B800934205D01A6822F00E021A60266809E0E7
:1012C8001A6822F01E021A602268536923F080030C
:1012D8005361266823686B496B4A934218BF8B4257
:1012E80042D0183293423FD0183293423CD0183241
:1012F800934239D01832934236D01832934233D0C1
:101308001832934230D002F5567293422CD01832DC
:10131800934229D01832934226D01832934223D0D0
:101328001832934220D0183293421DD0183293427B
:101338001AD01832934217D0544A934214D0143218
:10134800934211D0143293420ED0143293420BD0F0
:101358001432934208D01432934205D01432934287
:1013680002D01432934204D1226E136823F480739E
:10137800136023684349444A934218BF8B422FD0D5
:10138800183293422CD01832934229D01832934203
:1013980026D01832934223D01832934220D01832E4
:1013A80093421DD002F55672934219D018329342D7
:1013B80016D01832934213D01832934210D01832F4
:1013C80093420DD0183293420AD01832934207D074
:1013D8001832934204D01A6822F001021A6003E01E
:1013E8001A6822F001021A60336813F0010F0ED058
:1013F800FFF790FE431B052BF6D9202363650323D3
:1014080084F83530002384F8343001201FE723683E
:101418001C491D4A934218BF8B4239D01832934257
:1014280036D01832934233D01832934230D0183223
:1014380093422DD0183293422AD01832934227D0A3
:1014480002F55672934223D01832934220D01832B4
:1014580093421DD0183293421AD01832934217D0B3
:101468001832934214D01832934211D01832934252
:101478000ED0A16DE36D03F01F02012393404B6072
:101488000DE000BF10000240280002400854025836
:10149800A16DE36D03F01F023F2393408B60236827
:1014A8002E492F4A934218BF8B4242D0183293429A
:1014B8003FD0183293423CD01832934239D0183278
:1014C800934236D01832934233D01832934230D0F8
:1014D80002F5567293422CD01832934229D0183212
:1014E800934226D01832934223D01832934220D008
:1014F800183293421DD0183293421AD018329342B0
:1015080017D0184A934214D01432934211D014328F
:1015180093420ED0143293420BD01432934208D027
:101528001432934205D01432934202D014329342BB
:101538000BD1636EA26E5A60E36E33B11A6822F45F
:1015480080721A60236F626F5A60012384F8353005
:10155800002084F834007AE6012078E61000024082
:101568002800024008540258002800F0298108B5D4
:10157800024690F83530DBB2022B03D08023436556
:10158800012008BD0368904890498B4218BF8342E8
:101598000CBF0121002166D03030834263D018305F
:1015A800834260D0183083425DD0183083425AD0CD
:1015B8001830834257D01830834254D000F5567003
:1015C800834250D0183083424DD0183083424AD0DD
:1015D8001830834247D01830834244D018308342B1
:1015E80041D0183083423ED0183083423BD019682E
:1015F80021F00E0119601368A0F5956073498B42BC
:1016080018BF83426AD072498B4267D018318B4227
:1016180064D018318B4261D018318B425ED01831BA
:101628008B425BD018318B4258D001F556718B42F2
:1016380054D018318B4251D018318B424ED01831CA
:101648008B424BD018318B4248D018318B4245D051
:1016580018318B4242D018318B423FD0196821F0A3
:10166800010119603EE0042082F8350081BB584A28
:1016780093422DD0183293422AD01832934227D061
:101688001832934224D01832934221D01832934210
:101698001ED002F5567293421AD01832934217D0D0
:1016A8001832934214D01832934211D01832934210
:1016B8000ED0183293420BD01832934208D0183209
:1016C800934205D01A6822F001021A60002058E7F8
:1016D8001A6822F001021A60002052E7196821F006
:1016E800010119601368384838498B4218BF834292
:1016F80042D018318B423FD018318B423CD0183140
:101708008B4239D018318B4236D018318B4233D0C6
:1017180018318B4230D001F556718B422CD01831DC
:101728008B4229D018318B4226D018318B4223D0D6
:1017380018318B4220D018318B421DD018318B4282
:101748001AD018318B4217D022498B4214D0143149
:101758008B4211D014318B420ED014318B420BD0F6
:1017680014318B4208D014318B4205D014318B428E
:1017780002D014318B4217D1116E0B6823F4807399
:101788000B60906DD36D03F01F0101238B40436004
:10179800536E916E5960D36E33B1196821F480711C
:1017A8001960136F516F5960012382F83530002397
:1017B80082F83430136D2BB1104698470020E0E6CC
:1017C800012070470020DCE610000240280002409B
:1017D800400002400854025870B582B000236EE001
:1017E80085685E000324B44025EA0405CC68B4404B
:1017F8002C438460446824EA0C0C4C68C4F300143D
:101808009C4044EA0C0444606CE0DD08083550F85C
:10181800256003F007044FEA840C0F2404FA0CF443
:1018280026EA040E0C6904FA0CF444EA0E0440F8A3
:1018380025406FE0092400E0002404FA0EF42C434C
:101848000CF1020C6B4D45F82C404FF0B044256864
:10185800D44325EA0206D1F804C01CF4801F01D045
:1018680042EA05064FF0B0452E606D6804EA0506A9
:10187800D1F804C01CF4001F01D042EA05064FF05D
:10188800B0456E60D5F8845004EA0506D1F804C066
:101898001CF4003F01D042EA05064FF0B045C5F8F8
:1018A8008460D5F880502C404E6816F4803F01D0F3
:1018B80042EA05044FF0B042C2F8804001330A689A
:1018C80032FA03F400F093804FF0010C0CFA03FC99
:1018D8001CEA0202F2D04C6804F00304013C012C1B
:1018E8007FF67EAF4C6804F00304032C0CD0C46868
:1018F8005D004FF0030C0CFA05FC24EA0C0C8C6814
:10190800AC4044EA0C04C4604C6804F00304022CA4
:101918003FF47BAF04684FEA430E4FF0030C0CFA18
:101928000EFC24EA0C0C4C6804F0030404FA0EF4D0
:1019380044EA0C0404604C6814F4403FBED02E4CBA
:10194800D4F8F45045F00205C4F8F450D4F8F44043
:1019580004F002040194019C4FEA930C0CF1020577
:10196800244C54F8255003F003044FEA840E0F2446
:1019780004FA0EF425EA0405204CA0423FF45CAFBB
:1019880004F58064A04222D004F58064A04220D0EF
:1019980004F58064A0421ED004F58064A0421CD0E7
:1019A80004F58064A0421AD004F58064A04218D0DF
:1019B80004F58064A04216D004F58064A04214D0D7
:1019C80004F58064A0423FF435AF0A2435E70124CA
:1019D80033E7022431E703242FE704242DE7052405
:1019E8002BE7062429E7072427E7082425E702B080
:1019F80070BD00BF0004005800440258000002589F
:101A08000369194201D001207047002070470AB1CC
:101A1800816170470904816170470000134BDB68DE
:101A280013F0040F07D1114BDB6803F0070383425F
:101A38001AD00120704710B50C4AD36823F0070369
:101A48001843D060FFF766FB0446084B5B6813F445
:101A5800005F07D1FFF75EFB001BB0F57A7FF4D972
:101A6800012000E0002010BD002070470048025807
:101A7800002800F0188338B50446036813F0010FF6
:101A880025D0944A136903F03803926A102B15D0B5
:101A9800182B0FD06368B3F5803F3FD0002B53D18C
:101AA8008C4B1A6822F480321A601A6822F4802259
:101AB8001A6038E002F00302022AEBD1854B1B685A
:101AC80013F4003F03D06368002B00F0EE82236814
:101AD80013F0020F00F0A1807E4A1369926A13F096
:101AE80038035AD0182B55D0E368002B00F0DE805D
:101AF80078490A6822F0190213430B60FFF70AFBC2
:101B08000546744B1B6813F0040F40F0AD80FFF7D7
:101B180001FB401B0228F4D90320CDE26D4A13686B
:101B280043F48033136063682BB3FFF7F3FA054679
:101B3800684B1B6813F4003FC9D1FFF7EBFA401B51
:101B48006428F5D90320B7E2B3F5A02F09D0614B7B
:101B58001A6822F480321A601A6822F480221A6005
:101B6800E1E75C4B1A6842F480221A601A6842F472
:101B780080321A60D7E7FFF7CDFA0546554B1B6848
:101B880013F4003FA3D0FFF7C5FA401B6428F5D92A
:101B9800032091E212F0030FA6D14E4B1B6813F0FD
:101BA800040F03D0E368002B00F08182494A1368D0
:101BB80023F01903E1680B431360FFF7ABFA0546FE
:101BC800444B1B6813F0040F06D1FFF7A3FA401B20
:101BD8000228F5D903206FE2FFF7B6FA41F20303B2
:101BE800984212D82269402A07D03A494B6823F410
:101BF8007C3343EA02334B600FE0364A536823F4E0
:101C08007C3343F40033536007E0324A536823F0CF
:101C1800FE43216943EA01635360236813F0100F00
:101C280000F088802B4A136903F03803926A082B66
:101C380056D0182B50D0E369002B00F0B880254A05
:101C4800136843F080031360FFF764FA0546214BDD
:101C58001B6813F4807F40F08880FFF75BFA401B15
:101C68000228F4D9032027E2FFF76EFA41F20303B2
:101C7800984212D82269402A07D016494B6823F4A3
:101C88007C3343EA02334B60C7E7124A536823F4B4
:101C98007C3343F400335360BFE70E4A536823F0A4
:101CA800FE43216943EA01635360B6E7094A1368B2
:101CB80023F001031360FFF72DFA0546054B1B6857
:101CC80013F0040FA9D0FFF725FA401B0228F5D915
:101CD8000320F1E10044025802F00302012AAAD1CC
:101CE800A14B1B6813F4807F03D0E369802B40F07D
:101CF800E081FFF729FA41F20303984212D8226AD9
:101D0800202A07D098494B6823F0F84343EA8263B6
:101D18004B600FE0944A536823F0F84343F0804344
:101D2800536007E0904AD36823F07C53216A43EA62
:101D38000163D360236813F0080F60D06369002B38
:101D480049D0894A536F43F001035367FFF7E2F91B
:101D58000546854B5B6F13F0020F50D1FFF7DAF998
:101D6800401B0228F5D90320A6E1FFF7EDF941F25F
:101D78000303984212D8226A202A07D07A494B686E
:101D880023F0F84343EA82634B60D3E7764A53680B
:101D980023F0F84343F080435360CBE7724AD3689B
:101DA80023F07C53216A43EA0163D360C2E76E4A99
:101DB800136823F080031360FFF7ACF905466A4BFC
:101DC8001B6813F4807FB5D0FFF7A4F9401B0228E5
:101DD800F5D9032070E1644A536F23F00103536778
:101DE800FFF798F90546604B5B6F13F0020F06D0BA
:101DF800FFF790F9401B0228F5D903205CE123681E
:101E080013F0200F29D0A3699BB1574A136843F4F4
:101E180080531360FFF77EF90546534B1B6813F494
:101E2800005F1AD1FFF776F9401B0228F5D9032085
:101E380042E14D4A136823F480531360FFF76AF9AF
:101E48000546494B1B6813F4005F06D0FFF762F99B
:101E5800401B0228F5D903202EE1236813F0040F54
:101E680021D1636A002B00F026813F4A126902F0F3
:101E78003802182A00F0EE80022B79D03A4A13680B
:101E880023F080731360FFF745F90446364B1B684F
:101E980013F0007F00F0DC80FFF73CF9001B0228FC
:101EA800F4D9032008E1314A136843F480731360BE
:101EB800FFF730F905462D4B1B6813F4807F06D1D8
:101EC800FFF728F9401B6428F5D90320F4E0A3683C
:101ED800012B0AD00BBB244B1A6F22F001021A67A0
:101EE8001A6F22F004021A6704E01F4A136F43F0C6
:101EF80001031367A36833B3FFF70CF905461A4BC0
:101F08001B6F13F0020FACD1FFF704F9401B41F22D
:101F180088339842F3D90320CEE0052B09D0124B21
:101F28001A6F22F001021A671A6F22F004021A6768
:101F3800E0E70D4B1A6F42F004021A671A6F42F07D
:101F480001021A67D6E7FFF7E5F80546064B1B6F4F
:101F580013F0020F85D0FFF7DDF8401B41F28833FC
:101F68009842F3D90320A7E00044025800480258D9
:101F7800594A136823F080731360FFF7CBF80546BE
:101F8800554B1B6813F0007F06D0FFF7C3F8401BC2
:101F98000228F5D903208FE04F4B996A4F4A0A402F
:101FA800A16AE06A41EA00110A439A62226B013A87
:101FB800C2F30802616B0139490289B20A43A16B75
:101FC8000139090401F4FE010A43E16B01390906EC
:101FD80001F0FE410A431A63DA6A22F00102DA626A
:101FE800596B3F4A0A40A16C42EAC1025A63DA6A55
:101FF80022F00C02216C0A43DA62DA6A22F0020249
:10200800616C0A43DA62DA6A42F48032DA62DA6AC6
:1020180042F40032DA62DA6A42F48022DA62DA6A78
:1020280042F00102DA621A6842F080721A60FFF721
:1020380071F80446284B1B6813F0007F06D1FFF7A0
:1020480069F8001B0228F5D9032035E0002033E0A9
:10205800002031E0204A916A106B012B2DD001F04D
:102068000303A26A93422AD1C1F30511E36A994294
:1020780027D1C0F30802236B013B9A4223D1C0F356
:102088004622636B013B9A421FD1C0F30642A36B01
:10209800013B9A421BD1C0F30660E36B013B9842B7
:1020A80017D1002008E001207047012004E001203A
:1020B80002E0012000E0002038BD0120FCE70120FB
:1020C800FAE70120F8E70120F6E70120F4E701200C
:1020D800F2E70120F0E700BF004402580CFCFFFFC4
:1020E8000700FFFFF8B57E4B1B6903F03803102B80
:1020F80000F0F280182B10D013B17A4C2046F8BDAE
:10210800774B1B6813F0200F00F0E880744B1868B9
:10211800C0F3C100744CC440F0E7714B9D6A05F0F0
:1021280003059C6AC4F30514D86A00F001005B6BD0
:10213800C3F3CC0303FB00F0FEF780F90646002C3E
:10214800DCD0012D76D0022D00F0A4800DB32046FE
:10215800FEF774F901466548FEF77CFA0446604BC1
:10216800186BC0F30800FEF769F905464FF0645193
:102178003046FEF7BBF901462846FEF7AFF84FF0A8
:102188007E51FEF7ABF801462046FEF7AFF904464C
:1021980071E0534B1B6813F0200F29D0504F3B6858
:1021A800C3F3C1035048D840FEF748F90546204616
:1021B800FEF744F901462846FEF74CFA0446386B08
:1021C800C0F30800FEF73AF905464FF0645130466F
:1021D800FEF78CF901462846FEF780F84FF07E514D
:1021E800FEF77CF801462046FEF780F9044642E0F7
:1021F8002046FEF723F901463D48FEF72BFA044630
:10220800374B186BC0F30800FEF718F905464FF076
:1022180064513046FEF76AF901462846FEF75EF833
:102228004FF07E51FEF75AF801462046FEF75EF958
:10223800044620E02046FEF701F901462B48FEF748
:1022480009FA0446264B186BC0F30800FEF7F6F8A7
:1022580005464FF064513046FEF748F901462846D6
:10226800FEF73CF84FF07E51FEF738F8014620465D
:10227800FEF73CF904461A4B1B6BC3F34623581C64
:10228800FEF7DCF801462046FEF7E4F9FEF77EFA91
:10229800044633E72046FEF7D1F801461548FEF715
:1022A800D9F904460E4B186BC0F30800FEF7C6F8C0
:1022B80005464FF064513046FEF718F901462846A6
:1022C800FEF70CF84FF07E51FEF708F8014620465D
:1022D800FEF70CF90446CEE7074C0FE7024C0DE772
:1022E8000044025800093D000090D0030024744ABD
:1022F8000024744C20BCBE4B40787D01002800F0BF
:10230800328170B50D4604469B4B1B6803F00F03E2
:102318008B420BD2984A136823F00F030B431360C8
:10232800136803F00F038B4240F01F81236813F0FA
:10233800040F0CD02269914B9B6903F070039A42F9
:1023480005D98E498B6923F070031A438A61236883
:1023580013F0080F0CD06269884BDB6903F0700337
:102368009A4205D98549CB6923F070031A43CA619B
:10237800236813F0100F0CD0A269804BDB6903F4BB
:10238800E0639A4205D97D49CB6923F4E0631A4397
:10239800CA61236813F0200F0CD0E269774B1B6ADF
:1023A80003F070039A4205D974490B6A23F070034D
:1023B8001A430A62236813F0020F0CD0E2686F4BCD
:1023C8009B6903F00F039A4205D96C498B6923F086
:1023D8000F031A438A61236813F0010F41D0674A3B
:1023E800936923F47063A1680B4393616368022BBC
:1023F8000AD0032B27D0012B2CD0604A126812F088
:10240800040F06D10120ADE0126812F4003F00F07D
:10241800AE805A490A6922F0070213430B61FEF79E
:1024280079FE0646554B1B6903F038036268B3EB27
:10243800C20F16D0FEF76EFE801B41F28833984219
:10244800F0D903208EE04D4A126812F0007FE0D1E7
:10245800012087E0494A126812F4807FD9D101200F
:1024680080E0236813F0020F0CD0E268434B9B69AD
:1024780003F00F039A4205D240498B6923F00F03FA
:102488001A438A613C4B1B6803F00F03AB420AD91D
:10249800394A136823F00F032B431360136803F0C2
:1024A8000F03AB4265D1236813F0040F0CD02269E7
:1024B800324B9B6903F070039A4205D22F498B690E
:1024C80023F070031A438A61236813F0080F0CD0B5
:1024D80062692A4BDB6903F070039A4205D22749E7
:1024E800CB6923F070031A43CA61236813F0100FF5
:1024F8000CD0A269214BDB6903F4E0639A4205D250
:102508001E49CB6923F4E0631A43CA61236813F0B8
:10251800200F0CD0E269194B1B6A03F070039A4232
:1025280005D216490B6A23F070031A430A62FFF7B3
:10253800D9FD12498B69C3F30323114AD35C03F015
:102548001F03D8408B6903F00F03D35C03F01F030C
:1025580020FA03F30B4A13600B4B18600B4B1868F7
:10256800FEF776FD70BD012070470120FAE70120D3
:10257800F8E70120F6E700BF0020005200440258A7
:102588004846000808000024040000241000002425
:1025980008B5FFF7A7FD0B4A9369C3F303230A495C
:1025A800CB5C03F01F0320FA03F3926902F00F02D9
:1025B800885C00F01F0023FA00F0044A1060044A07
:1025C800136008BD0044025848460008080000246B
:1025D8000400002408B5FFF7DBFF054BDB69C3F3F4
:1025E8000213044AD35C03F01F03D84008BD00BFA0
:1025F800004402584846000808B5FFF7C9FF054BD4
:10260800DB69C3F30223044AD35C03F01F03D840F9
:1026180008BD00BF0044025848460008404B9B6A6A
:1026280003F00303032B79D070B505460E463C4AE8
:10263800136823F080631360FEF76CFD0446384B83
:102648001B6813F0006F06D0FEF764FD031B022B16
:10265800F5D9032070BD324B9A6A22F47C3229687E
:1026680042EA01329A626A68013AC2F30802A9682A
:102678000139490289B20A43E9680139090401F4B8
:10268800FE010A4329690139090601F0FE410A439E
:102698009A63DA6A22F0C00269690A43DA62DA6A7E
:1026A80022F02002A9690A43DA62DA6A22F01002EB
:1026B800DA62D96B1B4A0A40E96942EAC102DA6365
:1026C800DA6A42F01002DA62C6B91A46DB6A43F4E3
:1026D8000023D362124A136843F080631360FEF745
:1026E80019FD04460E4B1B6813F0006F14D1FEF75A
:1026F80011FD001B0228F5D90320ABE7012E05D0F8
:10270800074AD36A43F40013D362E3E7044AD36A5F
:1027180043F48013D362DDE700209BE70120704774
:10272800004402580700FFFF404B9B6A03F0030375
:10273800032B79D070B505460E463C4A136823F042
:1027480080531360FEF7E6FC0446384B1B6813F011
:10275800005F06D0FEF7DEFC031B022BF5D9032031
:1027680070BD324B9A6A22F07C72296842EA0152A3
:102778009A626A68013AC2F30802A96801394902F3
:1027880089B20A43E9680139090401F4FE010A43E0
:1027980029690139090601F0FE410A431A64DA6A17
:1027A80022F4406269690A43DA62DA6A22F4007242
:1027B800A9690A43DA62DA6A22F48072DA62596C29
:1027C8001B4A0A40E96942EAC1025A64DA6A42F4D9
:1027D8008072DA62C6B91A46DB6A43F48003D362B0
:1027E800124A136843F080531360FEF793FC0446C3
:1027F8000E4B1B6813F0005F14D1FEF78BFC001B17
:102808000228F5D90320ABE7012E05D0074AD36A81
:1028180043F08073D362E3E7044AD36A43F40003C6
:10282800D362DDE700209BE701207047004402588F
:102838000700FFFFF8B50446036813F0006F30D0B7
:10284800436EB3F5001F26D00ED8EBB1B3F5801F49
:1028580007D102210430FFF7E1FE054645B12E46B7
:1028680021E0012635461EE0B3F5401F09D10025B9
:10287800954A136D23F44013616E0B4313650026CC
:1028880011E0012635460EE08F4AD36A43F400333F
:10289800D3620025ECE702212430FFF745FF054607
:1028A800DCE700263546236813F4807F14D0636D77
:1028B800042B30D8DFE803F0032228080800824AF6
:1028C800D36A43F40033D36245BB7F4A136D23F0C8
:1028D8000703616D0B431365236813F4007F2FD042
:1028E800A36D802B49D01ED8002B40D0402B17D188
:1028F8000021201DFFF792FE054619E00021201D4A
:10290800FFF78CFE0546DFE7002104F12400FFF7FE
:102918000BFF0546D8E701263546DDE72E46DBE7FF
:10292800012635460CE0C02B02D0B3F5807F1BD1C1
:1029380055BB654A136D23F4E073A16D0B43136512
:10294800236813F4806F45D0D4F8A430B3F5800F12
:1029580038D01ED883B3B3F5001F17D10021201D2E
:10296800FFF75CFE05461AE001263546E8E7564AB9
:10297800D36A43F40033D362DAE7002104F1240078
:10298800FFF7D2FE0546D3E72E46D9E7012635469E
:1029980020E0B3F5C00F02D0B3F5000F09D1C5B9D7
:1029A800494A936D23F46003D4F8A4100B4393654C
:1029B80010E0012635460DE0434AD36A43F400335C
:1029C800D362ECE7002104F12400FFF7ADFE0546D1
:1029D800E5E72E46236813F4006F23D0D4F8A83017
:1029E800B3F1007F41D00DD8002B38D0B3F1807FF0
:1029F80005D10021201DFFF711FE054608E001263C
:102A080035460FE0B3F1407F02D0B3F1806F23D198
:102A1800002D31D12C4A936D23F0E063D4F8A8102F
:102A28000B439365236813F0007F2ED0A36C202BF3
:102A38003FD026D833B1102B20D1234AD36A43F490
:102A48000033D362002D3AD11F4AD36C23F03003F0
:102A5800A16C0B43D36418E001263546E2E71A4A15
:102A6800D36A43F40033D362D2E7002104F124008F
:102A7800FFF75AFE0546CBE72E46D3E70126354633
:102A880003E0302BDED001263546236813F4805F3F
:102A98002BD0E36DB3F5005F4CD017D8002B43D093
:102AA800B3F5805F0DD10021201DFFF7B7FD054666
:102AB80012E00221201DFFF7B1FD0546C2E72E46B0
:102AC800E3E70126354610E000440258B3F5405FBD
:102AD80002D0B3F5804F24D1002D32D1754A136D41
:102AE80023F4E043E16D0B431365236813F4005F9F
:102AF80037D0236EB3F5003F51D027D83BB1B3F59B
:102B0800803F20D10121201DFFF788FD0546002DBB
:102B18004CD1684A136D23F4E023216E0B431365EF
:102B28001FE001263546E0E7624AD36A43F40033E2
:102B3800D362D1E7002104F12400FFF7F5FD054633
:102B4800CAE72E46D1E7012635460AE0B3F5802FBD
:102B5800DDD0B3F5A02FDAD0B3F5403FD7D00126AA
:102B68003546236813F4804F30D0D4F8AC30B3F135
:102B7800005F44D01FD83BB1B3F1805F18D1012169
:102B8800201DFFF74BFD0546002D3FD1494A936DA7
:102B980023F0E043D4F8AC100B43936516E0012111
:102BA80004F12400FFF7C0FD0546B0E72E46D8E73C
:102BB800012635460AE0B3F1804FE5D0B3F1A04FC6
:102BC800E2D0B3F1405FDFD001263546236813F425
:102BD800004F09D0E36EB3F1805F19D0B3F1005F05
:102BE80024D0D3B101263546236813F0807F32D034
:102BF800636C032B59D8DFE803F026215226012104
:102C080004F12400FFF790FD0546BDE72E46DDE7F9
:102C1800284AD36A43F40033D3626DB9254A136D49
:102C280023F04053E16E0B431365DDE70121201DBE
:102C3800FFF7F4FC0546F0E72E46D5E71D4AD36AB0
:102C480043F40033D3629DBB1A4AD36C23F00303C9
:102C5800616C0B43D364236813F4800F2CD1236871
:102C680013F0010F00F0A380A36F282B00F29D80C2
:102C7800DFE803F08B9B9B9B9B9B9B9B869B9B9B73
:102C88009B9B9B9B949B9B9B9B9B9B9B8B9B9B9BA3
:102C98009B9B9B9B8B9B9B9B9B9B9B9B8B0002214A
:102CA800201DFFF7BBFC0546CDE701263546D2E7D8
:102CB8002E46D0E7004402588F4A136843F48073C5
:102CC8001360FEF727FA07468B4B1B6813F4807FC7
:102CD80005D1FEF71FFAC01B6428F5D90325002D7E
:102CE8004AD1864B1B6FD4F8B020534013F4407F71
:102CF8000CD0824B1A6F22F44072196F41F4803164
:102D08001967196F21F4803119671A67D4F8B03040
:102D1800B3F5807F15D08DBBD4F8B03003F4407282
:102D2800B2F5407F1ED0754A136923F47C531361B2
:102D380072490B6FD4F8B020C2F30B0213430B6730
:102D48008DE7FEF7E7F907466C4B1B6F13F0020F90
:102D5800E1D1FEF7DFF9C01B41F288339842F3D97D
:102D68000325D8E76548026922F47C52644901EAE0
:102D7800131313430361DBE72E4670E72E466EE715
:102D88000121201DFFF74AFC0546E5B95B4A536D52
:102D980023F03803A16F0B43536508E0012104F1C8
:102DA8002400FFF7C1FC0546EFE7012635462368F6
:102DB80013F0020F16D0636F052B27D8DFE803F056
:102DC8000A051F0A0A0A2E46F1E70121201DFFF70E
:102DD80025FC0546EDB9494A536D23F00703616F99
:102DE8000B435365236813F0040F22D0D4F89030B6
:102DF800052B43D8DFE803F0140F3B14141401210A
:102E080004F12400FFF790FC0546E3E70126354668
:102E1800E8E72E46E6E70121201DFFF7FFFB054600
:102E28007DBB364A936D23F00703D4F890100B430B
:102E38009365236813F0200F33D0D4F88C30B3F1A6
:102E4800005F4CD022D83BB1B3F1805F1BD1002189
:102E5800201DFFF7E3FB0546002D47D1274A536D98
:102E680023F0E043D4F88C100B43536519E001219B
:102E780004F12400FFF758FC0546D1E70126354642
:102E8800D7E72E46D5E7012635460AE0B3F1804F4D
:102E9800E2D0B3F1A04FDFD0B3F1405FDCD0012620
:102EA8003546236813F0400F37D0D4F89830B3F57F
:102EB800006F52D026D83BB1B3F5806F18D10021EE
:102EC800201DFFF7ABFB0546002D4DD10B4A936D36
:102ED80023F4E053D4F898100B4393651DE00221C6
:102EE80004F12400FFF720FC0546B5E72E46D8E795
:102EF8000126354611E000BF004802580044025838
:102F0800CFFFFF00B3F5805FDED0B3F5A05FDBD065
:102F1800B3F5406FD8D001263546236813F0800FEB
:102F280032D0D4F89C30B3F5804F00F09D8020D883
:102F38003BB1B3F5005F19D10021201DFFF76EFBEF
:102F48000546002D40F09780A54A936D23F4604311
:102F5800D4F89C100B43936516E0022104F1240079
:102F6800FFF7E2FB0546AFE72E46D6E701263546D2
:102F78000AE0B3F5004FE4D0B3F5204FE1D0B3F544
:102F8800C04FDED001263546236813F0080F0CD059
:102F9800D4F88030B3F5805F6FD0914A536D23F435
:102FA8004053D4F880100B435365236813F0100F77
:102FB8000CD0D4F89430B3F5807F67D0884A936DED
:102FC80023F44073D4F894100B439365236813F4E7
:102FD800002F0BD0D4F8A030B3F5803F6ED0B3F5F6
:102FE800003F61D0002B5AD001263546236813F4E0
:102FF800802F0CD0D4F88430B3F5001F76D0B3F509
:10300800401F69D0B3F5801F61D00126354623687B
:1030180013F4803F07D0E36C002B70D0B3F5803FEA
:103028007BD001263546236813F0005F7DD12368E5
:1030380013F4003F00F08680E36FB3F5807F00F063
:10304800C6807CD9B3F5007F03D0B3F5407F40F04C
:10305800BC80002D40F0C180614A536D23F4407359
:10306800E16F0B4353656DE0022104F12400FFF783
:103078005BFB054665E72E4686E7022104F124003E
:10308800FFF752FB002888D0012686E7022104F1C9
:103098002400FFF749FB002890D001268EE7002185
:1030A800201DFFF7BBFA05467DB94D4A936D23F401
:1030B8004033D4F8A0100B43936597E7022104F13D
:1030C8002400FFF731FB0546EEE72E468EE7444A1B
:1030D800D36A43F40033D3627DB9414A536D23F474
:1030E8004013D4F884100B43536590E7012104F191
:1030F8002400FFF719FB0546EEE72E4687E7384A16
:10310800D36A43F40033D3626DB9354AD36C23F4E0
:103118008033E16C0B43D36485E70221201DFFF760
:103128007DFA0546F0E72E467DE7022104F12400EA
:10313800FFF7FAFA00283FF47AAF012677E7002B69
:1031480087D00126236813F4801F06D0244A136D04
:1031580023F00043216F0B431365236813F0805F4E
:1031680007D01F4A136923F48043D4F8B4100B43E3
:103178001361236813F4001F06D0194A136D23F056
:103188008073A16E0B431365236813F0804F09D039
:10319800134B1A6922F400421A611A69D4F8B8105C
:1031A8000A431A612368002B1CDB236813F4000F01
:1031B80007D00B4A536D23F44003D4F888100B430F
:1031C800536506B101263046F8BD0126BAE7044A20
:1031D800D36A43F40033D3623BE72E46B2E700BF1D
:1031E80000440258034AD36C23F04053216D0B432B
:1031F800D364DAE70044025808B5FFF7C9F9054B6C
:103208001B6AC3F30213044AD35C03F01F03D840BC
:1032180008BD00BF00440258484600082DE9F041A7
:103228000446864B9D6A9E6AC6F30536D86AC0F383
:103238000010DB6BC3F3CC0303FB00F0FDF7FEF8D3
:10324800002E00F0F58005F003050746012D79D022
:10325800022D00F0CB800DB33046FDF7EFF80146A4
:103268007748FDF7F7F90546744B986BC0F30800EB
:10327800FDF7E4F806464FF064513846FDF736F995
:1032880001463046FDF72AF84FF07E51FDF726F843
:1032980001462846FDF72AF9054674E0674B1B6886
:1032A80013F0200F2CD0DFF89481D8F80030C3F346
:1032B800C1036448D840FDF7C1F805463046FDF71C
:1032C800BDF801462846FDF7C5F90546D8F8380087
:1032D800C0F30800FDF7B2F806464FF064513846CF
:1032E800FDF704F901463046FCF7F8FF4FF07E5130
:1032F800FCF7F4FF01462846FDF7F8F8054642E0DA
:103308003046FDF79BF801464F48FDF7A3F90546FF
:103318004A4B986BC0F30800FDF790F806464FF04B
:1033280064513846FDF7E2F801463046FCF7D6FF0F
:103338004FF07E51FCF7D2FF01462846FDF7D6F83C
:10334800054620E03046FDF779F801463C48FDF790
:1033580081F90546394B986BC0F30800FDF76EF804
:1033680006464FF064513846FDF7C0F8014630462E
:10337800FCF7B4FF4FF07E51FCF7B0FF014628463A
:10338800FDF7B4F805462D4EB06BC0F34620FDF7A7
:1033980055F84FF07E51FCF7A1FF01462846FDF78E
:1033A80059F9FDF7F3F92060B06BC0F30640FDF75B
:1033B80045F84FF07E51FCF791FF01462846FDF78E
:1033C80049F9FDF7E3F96060B06BC0F30660FDF7FB
:1033D80035F84FF07E51FCF781FF01462846FDF78E
:1033E80039F9FDF7D3F9A060BDE8F0813046FDF763
:1033F80025F801461548FDF72DF905460F4B986B42
:10340800C0F30800FDF71AF806464FF06451384635
:10341800FDF76CF801463046FCF760FF4FF07E512F
:10342800FCF75CFF01462846FDF760F80546AAE769
:10343800002323606360A360D6E700BF00440258FE
:103448000024744A0090D0030024744C20BCBE4B66
:103458002DE9F0410446864B9D6A9E6AC6F30556DF
:10346800D86AC0F300205B6CC3F3CC0303FB00F005
:10347800FCF7E4FF002E00F0F58005F00305074691
:10348800012D79D0022D00F0CB800DB33046FCF72A
:10349800D5FF01467748FDF7DDF80546744B186CF3
:1034A800C0F30800FCF7CAFF06464FF064513846DF
:1034B800FDF71CF801463046FCF710FF4FF07E512F
:1034C800FCF70CFF01462846FDF710F8054674E0A6
:1034D800674B1B6813F0200F2CD0DFF89481D8F8C5
:1034E8000030C3F3C1036448D840FCF7A7FF054682
:1034F8003046FCF7A3FF01462846FDF7ABF8054622
:10350800D8F84000C0F30800FCF798FF06464FF0D3
:1035180064513846FCF7EAFF01463046FCF7DEFE08
:103528004FF07E51FCF7DAFE01462846FCF7DEFF35
:10353800054642E03046FCF781FF01464F48FDF75B
:1035480089F805464A4B186CC0F30800FCF776FF6B
:1035580006464FF064513846FCF7C8FF014630462E
:10356800FCF7BCFE4FF07E51FCF7B8FE014628463A
:10357800FCF7BCFF054620E03046FCF75FFF01463C
:103588003C48FDF767F80546394B186CC0F308004E
:10359800FCF754FF06464FF064513846FCF7A6FF87
:1035A80001463046FCF79AFE4FF07E51FCF796FE36
:1035B80001462846FCF79AFF05462D4E306CC0F3AD
:1035C8004620FCF73BFF4FF07E51FCF787FE014693
:1035D8002846FDF73FF8FDF7D9F82060306CC0F3B6
:1035E8000640FCF72BFF4FF07E51FCF777FE0146B3
:1035F8002846FDF72FF8FDF7C9F86060306CC0F376
:103608000660FCF71BFF4FF07E51FCF767FE014692
:103618002846FDF71FF8FDF7B9F8A060BDE8F0816E
:103628003046FCF70BFF01461548FDF713F8054631
:103638000F4B186CC0F30800FCF700FF06464FF06C
:1036480064513846FCF752FF01463046FCF746FE07
:103658004FF07E51FCF742FE01462846FCF746FF34
:103668000546AAE7002323606360A360D6E700BF8E
:10367800004402580024744A0090D0030024744C7B
:1036880020BCBE4B026852E8003F23F4907342E826
:1036980000310029F6D1026802F1080353E8001F3F
:1036A8000D4B0B40083242E800310029F3D1C36EBC
:1036B800012B06D02023C0F888300023C366036797
:1036C8007047026852E8003F23F0100342E80031D7
:1036D8000029F6D1EEE700BFFEFFFFEF704708B5FF
:1036E800026852E8003F23F0400342E80031002915
:1036F800F6D12023C0F8843000234367FFF7EEFF9C
:1037080008BD704708B5806B0023A0F85E30A0F8AC
:103718005630FFF7F6FF08BD7047000070B5044645
:103728000168CB6908688D6840F60F021A4008D115
:1037380013F0200F05D010F0200F34D115F0805F62
:1037480031D12AB1894A2A4033D1894E304230D109
:10375800E26E012A00F0C38013F4801F03D015F431
:10376800800F40F0928113F0800F07D010F0800F87
:1037780040F0928115F4000F40F08E8113F0400F55
:1037880003D010F0400F40F08E8113F4000F03D0E7
:1037980010F0804F40F08B8113F0807F02D000281A
:1037A800C0F2898170BD236F002BFBD0204698475B
:1037B800F8E713F0010F09D010F4807F06D0012636
:1037C8000E62D4F88C103143C4F88C1013F0020F39
:1037D8000BD015F0010F08D0216802260E62D4F82C
:1037E8008C1041F00401C4F88C1013F0040F0BD0B6
:1037F80015F0010F08D0216804260E62D4F88C1049
:1038080041F00201C4F88C1013F0080F0BD010F02F
:10381800200F00D13AB1226808211162D4F88C2017
:103828000A43C4F88C2013F4006F0CD010F0806F9A
:1038380009D022684FF400611162D4F88C2042F05C
:103848002002C4F88C20D4F88C20002AAAD013F0C7
:10385800200F09D010F0200F02D115F0805F03D09F
:10386800236F0BB120469847D4F88C2023689B68B7
:1038780013F0400F02D112F0280F29D02046FFF78D
:1038880001FF23689B6813F0400F1DD0226802F1E6
:10389800080353E8003F23F04003083242E80031B0
:1038A8000029F3D1E36F5BB1324A1A65E06FFDF787
:1038B8005BFE00283FF476AFE06F036D984771E731
:1038C8002046FFF71EFF6DE72046FFF71AFF69E75E
:1038D8002046FFF716FF0023C4F88C3062E713F088
:1038E800100F3FF439AF10F0100F3FF435AF10232D
:1038F8000B6223689B6813F0400F00F08E80E26F24
:1039080013681D481D498B4218BF834238D01831AF
:103918008B4235D018318B4232D018318B422FD0A0
:1039280018318B422CD018318B4229D018318B4258
:1039380026D001F556718B4222D018318B421FD008
:1039480018318B421CD018318B4219D018318B4258
:1039580016D018318B4213D018318B4210D0183141
:103968008B420DD05B689BB20CE000BF01000010D9
:10397800200100040D370008100002402800024012
:103988005B689BB2002B3FF40DAFB4F85C10994212
:103998007FF608AFA4F85E30D369B3F5807F31D0E5
:1039A800226852E8003F23F4807342E8003100297E
:1039B800F6D1226802F1080353E8003F23F001031F
:1039C800083242E800310029F3D1226802F10803E5
:1039D80053E8003F23F04003083242E80031002951
:1039E800F3D12023C4F888300023E366226852E824
:1039F800003F23F0100342E800310029F6D1E06FC0
:103A0800FDF712FCB4F85C10B4F85E309BB2C91A2A
:103A180089B22046FFF780FEC4E6B4F85C10B4F81B
:103A28005E309BB2C91A89B2B4F85E309BB2002BE3
:103A38003FF4B8AE00293FF4B5AE226852E8003F23
:103A480023F4907342E800300028F6D1226802F18E
:103A5800080353E8000F1A4B0340083242E80030CD
:103A68000028F3D12023C4F888300023E3662367B5
:103A7800226852E8003F23F0100342E80030002893
:103A8800F6D12046FFF748FE8CE64FF480130B6210
:103A9800204600F077FC85E6636F002B3FF482AE8A
:103AA800204698477EE62046FFF719FE7AE620462C
:103AB80000F06AFC76E6204600F065FC72E600BF7E
:103AC800FEFFFFEF70B586B004460168836802699F
:103AD800134342691343C26913430868884A024082
:103AE80013430B602268536823F44053E1680B4387
:103AF8005360A1692268834B9A4201D0236A194313
:103B08009068814B03400B4393602268D36A23F08B
:103B18000F03616A0B43D36222687C4B9A4221D01F
:103B28007B4B9A4200F08C807A4B9A4200F0A2803C
:103B3800794B9A4200F0B580784B9A4200F0C880E1
:103B4800774B9A4200F0F480764B9A4200F0198144
:103B5800754B9A4200F02C816A4B9A4200F03F81E3
:103B6800802333E0714B5B6D03F03803282B65D855
:103B7800DFE813F029006400640064006400640056
:103B8800640064004D016400640064006400640023
:103B9800640064002B006400640064006400640036
:103BA800640064005E0064006400640064006400F3
:103BB80064006400600064006400640064006400E1
:103BC800640064006200012300E008234D498A4232
:103BD80000F02F81E069B0F5004F00F0AF81202B95
:103BE80000F20782202B00F25182DFE813F01E0258
:103BF80024024F024F0227024F024F024F022C02AB
:103C08004F024F024F024F024F024F024F02310242
:103C18004F024F024F024F024F024F024F024F0214
:103C28004F024F024F024F024F024F024F023D0216
:103C38001023CBE72023C9E74023C7E78023C5E744
:103C48003A4B5B6D03F00703052B11D8DFE813F03F
:103C58000600E10008000A000C000E000023B5E78A
:103C68000823B3E71023B1E72023AFE74023ADE7EC
:103C78008023ABE72D4B5B6D03F00703052B0ED8B4
:103C8800DFE803F003C90507090B00239EE70823B3
:103C98009CE710239AE7202398E7402396E78023A0
:103CA80094E7224B5B6D03F00703052B0ED8DFE882
:103CB80003F003B40507090B002387E7082385E70A
:103CC800102383E7202381E740237FE780237DE7D4
:103CD800164B5B6D03F00703052B0ED8DFE803F0E6
:103CE800039F0507090B002370E708236EE71023DD
:103CF8006CE720236AE7402368E7802366E700BF74
:103D0800F369FFCF000C0058FFF4FF1100100140C9
:103D18000044004000480040004C00400050004073
:103D28000014014000780040007C00400044025824
:103D38007D4B5B6D03F03803282B20D8DFE803F0B8
:103D4800151F1F1F1F1F1F1F711F1F1F1F1F1F1F33
:103D5800171F1F1F1F1F1F1F191F1F1F1F1F1F1F79
:103D68001B1F1F1F1F1F1F1F1D0001232EE70823D6
:103D78002CE710232AE7202328E7402326E780237F
:103D880024E7694B5B6D03F00703052B0ED8DFE8CA
:103D980003F0034A0507090B002317E7082315E773
:103DA800102313E7202311E740230FE780230DE7B3
:103DB8005D4B5B6D03F00703052B0ED8DFE803F0BE
:103DC80003350507090B002300E70823FEE6102347
:103DD800FCE62023FAE64023F8E68023F6E603F51E
:103DE8000E339B6D03F00703052B0ED8DFE803F0B5
:103DF800031F0507090B0223E8E60823E6E610235C
:103E0800E4E62023E2E64023E0E68023DEE604231E
:103E1800DCE60423DAE60423D8E60423D6E6042302
:103E2800D4E60423D2E60423D0E60423CEE6042312
:103E3800CCE6202B27D8022BC0F01A81023B1E2B80
:103E480000F21881DFE813F0500016015600160141
:103E5800160116015B00160116011601160116015E
:103E68001601160160001601160116011601160149
:103E78001601160116011601160116011601160182
:103E8800160116016C00402B2CD14FF40040626AD9
:103E9800264B33F81220B0FBF2F3656805EB4501B9
:103EA800994200F2E980B3EB053F00F2E780002673
:103EB80033463146FCF78AFC090241EA10610002E8
:103EC8006B08C0182A46334641F10001FCF77EFC16
:103ED800A0F54072164B9A4200F2D2802368D8604F
:103EE8003046D4E00120D2E0FFF786F90028CED191
:103EF8000020CCE003A8FFF791F90498F6E768469C
:103F0800FFF7A6FA0198F1E7074B1B6813F0200F9B
:103F180008D0054B1B68C3F3C1030648D840E5E742
:103F28000548B4E70348B2E7004402585846000879
:103F3800FFFC0F000090D00300093D00202B15D88E
:103F4800202B00F29F80DFE803F031379D9D3A9DDA
:103F58009D9D3F9D9D9D9D9D9D9D449D9D9D9D9D40
:103F68009D9D9D9D9D9D9D9D9D9D5000402B1BD180
:103F7800626A4D4B33F81230B0FBF3F062685308B5
:103F880003EB4000B0FBF2F0A0F110024FF6EF7324
:103F98009A4279D883B223F00F03C0F34200184342
:103FA8002368D860002072E0012070E0FEF712FB61
:103FB8000028DDD100206AE0FEF71EFBF8E703A821
:103FC800FFF72CF90498F3E76846FFF741FA0198E0
:103FD800EEE7364B1B6813F0200F08D0334B1B68F5
:103FE800C3F3C1033248D840E2E73248C0E730485B
:103FF800BEE7402B17D14FF40040626A2A4B33F8D2
:104008001230B0FBF3F0636800EB5300B0FBF3F041
:10401800A0F110024FF6EF739A4242D8236880B29B
:10402800D860002033E0012031E0FEF7D3FA002801
:10403800E3D100202BE0FEF7DFFAF8E703A8FFF74B
:10404800EDF80498F3E76846FFF702FA0198EEE7FF
:10405800164B1B6813F0200F08D0144B1B68C3F3D2
:10406800C1031348D840E2E71248C6E71048C4E73E
:1040780001200CE001200AE0012008E0012006E010
:10408800012004E0012002E0012000E001200123DA
:10409800A4F86A30A4F8683000232367636706B081
:1040A80070BD0120F3E700BF5846000800440258DD
:1040B8000090D00300093D00836A13F0010F06D079
:1040C8000268536823F40033C16A0B435360836A60
:1040D80013F0020F06D00268536823F48033016B93
:1040E8000B435360836A13F0040F06D002685368C9
:1040F80023F48023416B0B435360836A13F0080F4A
:1041080006D00268536823F40043816B0B43536065
:10411800836A13F0100F06D00268936823F4805363
:10412800C16B0B439360836A13F0200F06D00268BB
:10413800936823F40053016C0B439360836A13F074
:10414800400F0AD00268536823F48013416C0B4374
:104158005360436CB3F5801F0BD0836A13F0800F54
:1041680006D00268536823F40023C16C0B435360E4
:1041780070470268536823F4C003816C0B43536093
:10418800EBE72DE9F84305460F4616469946DDF854
:1041980020802C68E46937EA04030CBF4FF0010C57
:1041A8004FF0000CB44557D1B8F1FF3FF1D0FCF700
:1041B800B1FFA0EB090040452FD8B8F1000F2CD073
:1041C8002B681A6812F0040FE3D0DA6912F4006F52
:1041D800DFD04FF400621A622A6852E8003F23F4E5
:1041E800D07342E800310029F6D12A6802F10803A9
:1041F80053E8003F23F00103083242E80031002968
:10420800F3D12023C5F88430C5F88830C5F88C3040
:10421800002385F8803003201FE02A6852E8003F19
:1042280023F4D07342E800310029F6D12A6802F15C
:10423800080353E8003F23F00103083242E8003145
:104248000029F3D12023C5F88430C5F8883000232D
:1042580085F88030032000E00020BDE8F88330B501
:1042680083B004460023C0F88C30FCF753FF0546A2
:104278002268126812F0080F0FD123681B6813F028
:10428800040F18D12023C4F88430C4F888300020E3
:10429800E06684F8800003B030BD6FF07E43009381
:1042A800034600224FF400112046FFF76AFF00285A
:1042B800E3D00320EFE76FF07E4300932B46002204
:1042C8004FF480012046FFF75CFF0028DAD0032076
:1042D800E1E778B310B50446D0F884300BB3242353
:1042E800C4F884302268136823F001031360204661
:1042F800FFF7E8FB012813D0A36ABBB9226853680B
:1043080023F4904353602268936823F02A03936050
:104318002268136843F0010313602046FFF79FFFEC
:1043280010BD80F88030FCF7A5FDD8E72046FFF7E0
:10433800C3FEE3E701207047436E2BB90123A0F8C1
:104348006A30A0F86830704730B403689A68C2F3DE
:1043580042629968490F094D6B5C1B01084C615C0E
:1043680093FBF1F3A0F86A30AB5C1B01A25C93FBF2
:10437800F2F3A0F8683030BC704700BF78460008F8
:104388007046000870477047704790F88030012BDE
:1043980018D0012380F880302423C0F884300368C3
:1043A8001A68196821F00101196022F000520023EF
:1043B800436601680A602022C0F8842080F88030B3
:1043C800184670470220704738B590F88030012BA6
:1043D8001DD00446012380F880302423C0F884309F
:1043E80003681D681A6822F001021A60026893685F
:1043F80023F0604319439160FFF79EFF23681D6017
:104408002023C4F88430002084F8800038BD0220BE
:10441800FCE738B590F88030012B1DD00446012305
:1044280080F880302423C0F8843003681D681A6837
:1044380022F001021A600268936823F0606319434E
:104448009160FFF779FF23681D602023C4F884304A
:10445800002084F8800038BD0220FCE770B50D4EBE
:104468000D4D761BB61006D0002455F8043B0134D8
:104478009847A642F9D1094E094D761B00F0D4F8A9
:10448800B61006D0002455F8043B01349847A642DC
:10449800F9D170BD8C4600088C4600089446000887
:1044A8008C460008830730B548D0541E002A3FD0F8
:1044B800CAB2034601E0013C3AD303F8012B9D0739
:1044C800F9D1032C2DD9CDB245EA05250F2C45EAA3
:1044D800054536D9A4F1100222F00F0C03F1200E85
:1044E800E6444FEA121C03F1100242E9045542E97E
:1044F800025510327245F8D10CF1010214F00C0F7C
:1045080003EB021204F00F0C13D0ACF1040323F0F8
:1045180003030433134442F8045B9342FBD10CF0C9
:1045280003042CB1CAB21C4403F8012B9C42FBD1F2
:1045380030BD64461346002CF4D1F9E7034614460F
:10454800BFE71A46A446E0E7024B13B1024800F061
:1045580005B87047000000007145000800230146B7
:104568001A46184600F01AB838B5084B084D5B1BB8
:104578009C1007D0043B1D44013C55F8043998476A
:10458800002CF9D1BDE8384000F054B8984600082E
:1045980094460008704700BF704700BF2DE9F047F8
:1045A800DFF87CA00646DAF8000098460F469146E8
:1045B800FFF7F0FF1B4B1B68D3F8484124B365682D
:1045C8001F2D26DC5EB96B1C0235DAF8000063602B
:1045D80044F82570FFF7E0FF0020BDE8F08704EB02
:1045E80085010123C1F88890D4F88821AB401A438B
:1045F800022EC4F88821C1F80881E4D1D4F88C21AE
:104608001343C4F88C31DEE703F5A674C3F84841B8
:10461800D5E7DAF80000FFF7BFFF4FF0FF30DCE71F
:104628004004002480460008F8B500BFF8BC08BC68
:104638009E467047F8B500BFF8BC08BC9E46704758
:104648000000000001020304010203040607080930
:10465800010002000400060008000A000C00100017
:104668002000400080000001080402040801010144
:0C467800010101030701000018000024EC
:0846840080C1FF7F010000006E
:08468C0051450008BD020008C1
:04469400990200087F
:10469800010000000090D0030090D003010000004A
:1046A80010000000000000000000000004030024C7
:1046B8006C030024D4030024000000000000000064
:1046C80000000000000000000000000000000000E2
:1046D80000000000000000000000000000000000D2
:1046E80000000000000000000000000000000000C2
:1046F80000000000000000000000000000000000B2
:1047080000000000000000000000000000000000A1
:104718000000000000000000000000000000000091
:104728000000000000000000000000000000000081
:104738000000000000000000000000000000000071
:104748000000000000000000000000000000000061
:1047580001000000000000000E33CDAB34126DE6FE
:10476800ECDE05000B000000000000000000000067
:104778000000000000000000000000000000000031
:104788000000000000000000000000000000000021
:104798000000000000000000000000000000000011
:1047A8000000000000000000000000000000000001
:044AD800F4040024BE
:0400000508001005DA
:00000001FF
